{
  "_format": "hh-sol-artifact-1",
  "contractName": "Vote",
  "sourceName": "contracts/vote.sol",
  "abi": [
    {
      "inputs": [],
      "stateMutability": "nonpayable",
      "type": "constructor"
    },
    {
      "inputs": [
        {
          "internalType": "uint8",
          "name": "_optionId",
          "type": "uint8"
        }
      ],
      "name": "getOption",
      "outputs": [
        {
          "internalType": "uint8",
          "name": "id",
          "type": "uint8"
        },
        {
          "internalType": "string",
          "name": "name",
          "type": "string"
        },
        {
          "internalType": "uint64",
          "name": "voteCount",
          "type": "uint64"
        }
      ],
      "stateMutability": "view",
      "type": "function"
    },
    {
      "inputs": [],
      "name": "getOptions",
      "outputs": [
        {
          "components": [
            {
              "internalType": "uint8",
              "name": "id",
              "type": "uint8"
            },
            {
              "internalType": "string",
              "name": "name",
              "type": "string"
            },
            {
              "internalType": "uint64",
              "name": "voteCount",
              "type": "uint64"
            }
          ],
          "internalType": "struct Vote.Option[]",
          "name": "",
          "type": "tuple[]"
        }
      ],
      "stateMutability": "view",
      "type": "function"
    },
    {
      "inputs": [
        {
          "internalType": "uint8",
          "name": "",
          "type": "uint8"
        }
      ],
      "name": "options",
      "outputs": [
        {
          "internalType": "uint8",
          "name": "id",
          "type": "uint8"
        },
        {
          "internalType": "string",
          "name": "name",
          "type": "string"
        },
        {
          "internalType": "uint64",
          "name": "voteCount",
          "type": "uint64"
        }
      ],
      "stateMutability": "view",
      "type": "function"
    },
    {
      "inputs": [],
      "name": "totalOptions",
      "outputs": [
        {
          "internalType": "uint8",
          "name": "",
          "type": "uint8"
        }
      ],
      "stateMutability": "view",
      "type": "function"
    },
    {
      "inputs": [
        {
          "internalType": "uint8",
          "name": "_optionId",
          "type": "uint8"
        }
      ],
      "name": "vote",
      "outputs": [],
      "stateMutability": "nonpayable",
      "type": "function"
    },
    {
      "inputs": [
        {
          "internalType": "address",
          "name": "",
          "type": "address"
        }
      ],
      "name": "voters",
      "outputs": [
        {
          "internalType": "bool",
          "name": "",
          "type": "bool"
        }
      ],
      "stateMutability": "view",
      "type": "function"
    }
  ],
  "bytecode": "0x60806040523480156200001157600080fd5b50620000586040518060400160405280600a81526020017f566f746520626c616e6300000000000000000000000000000000000000000000815250620000ea60201b60201c565b6200009e6040518060400160405280600381526020017f4f75690000000000000000000000000000000000000000000000000000000000815250620000ea60201b60201c565b620000e46040518060400160405280600381526020017f4e6f6e0000000000000000000000000000000000000000000000000000000000815250620000ea60201b60201c565b62000375565b604051806060016040528060008054906101000a900460ff1660ff168152602001828152602001600067ffffffffffffffff16815250600160008060009054906101000a900460ff1660ff1660ff16815260200190815260200160002060008201518160000160006101000a81548160ff021916908360ff160217905550602082015181600101908051906020019062000186929190620001f5565b5060408201518160020160006101000a81548167ffffffffffffffff021916908367ffffffffffffffff16021790555090505060008081819054906101000a900460ff1680929190620001d990620002e1565b91906101000a81548160ff021916908360ff1602179055505050565b82805462000203906200033f565b90600052602060002090601f01602090048101928262000227576000855562000273565b82601f106200024257805160ff191683800117855562000273565b8280016001018555821562000273579182015b828111156200027257825182559160200191906001019062000255565b5b50905062000282919062000286565b5090565b5b80821115620002a157600081600090555060010162000287565b5090565b7f4e487b7100000000000000000000000000000000000000000000000000000000600052601160045260246000fd5b600060ff82169050919050565b6000620002ee82620002d4565b915060ff821415620003055762000304620002a5565b5b600182019050919050565b7f4e487b7100000000000000000000000000000000000000000000000000000000600052602260045260246000fd5b600060028204905060018216806200035857607f821691505b602082108114156200036f576200036e62000310565b5b50919050565b610dad80620003856000396000f3fe608060405234801561001057600080fd5b50600436106100625760003560e01c8063162abdfc146100675780632bcc792714610099578063a3ec138d146100cb578063b3543889146100fb578063b3f98adc14610119578063cc2ee19614610135575b600080fd5b610081600480360381019061007c919061085e565b610153565b60405161009093929190610956565b60405180910390f35b6100b360048036038101906100ae919061085e565b61030e565b6040516100c293929190610956565b60405180910390f35b6100e560048036038101906100e091906109f2565b6103e1565b6040516100f29190610a3a565b60405180910390f35b610103610401565b6040516101109190610a55565b60405180910390f35b610133600480360381019061012e919061085e565b610412565b005b61013d610628565b60405161014a9190610bea565b60405180910390f35b6000606060008060009054906101000a900460ff1660ff168460ff16106040518060400160405280601981526020017f4365747465206f7074696f6e206e276578697374652070617300000000000000815250906101e7576040517f08c379a00000000000000000000000000000000000000000000000000000000081526004016101de9190610c0c565b60405180910390fd5b506000600160008660ff1660ff1681526020019081526020016000206040518060600160405290816000820160009054906101000a900460ff1660ff1660ff16815260200160018201805461023b90610c5d565b80601f016020809104026020016040519081016040528092919081815260200182805461026790610c5d565b80156102b45780601f10610289576101008083540402835291602001916102b4565b820191906000526020600020905b81548152906001019060200180831161029757829003601f168201915b505050505081526020016002820160009054906101000a900467ffffffffffffffff1667ffffffffffffffff1667ffffffffffffffff16815250509050806000015181602001518260400151935093509350509193909250565b60016020528060005260406000206000915090508060000160009054906101000a900460ff169080600101805461034490610c5d565b80601f016020809104026020016040519081016040528092919081815260200182805461037090610c5d565b80156103bd5780601f10610392576101008083540402835291602001916103bd565b820191906000526020600020905b8154815290600101906020018083116103a057829003601f168201915b5050505050908060020160009054906101000a900467ffffffffffffffff16905083565b60026020528060005260406000206000915054906101000a900460ff1681565b60008054906101000a900460ff1681565b60008054906101000a900460ff1660ff168160ff16106040518060400160405280601981526020017f4365747465206f7074696f6e206e2765786973746520706173000000000000008152509061049f576040517f08c379a00000000000000000000000000000000000000000000000000000000081526004016104969190610c0c565b60405180910390fd5b50600260003373ffffffffffffffffffffffffffffffffffffffff1673ffffffffffffffffffffffffffffffffffffffff16815260200190815260200160002060009054906101000a900460ff16156040518060400160405280601981526020017f566f7573206e6520706f7576657a20706c757320766f7465720000000000000081525090610565576040517f08c379a000000000000000000000000000000000000000000000000000000000815260040161055c9190610c0c565b60405180910390fd5b506001600260003373ffffffffffffffffffffffffffffffffffffffff1673ffffffffffffffffffffffffffffffffffffffff16815260200190815260200160002060006101000a81548160ff021916908315150217905550600160008260ff1660ff168152602001908152602001600020600201600081819054906101000a900467ffffffffffffffff16809291906105fe90610cbe565b91906101000a81548167ffffffffffffffff021916908367ffffffffffffffff1602179055505050565b606060008060009054906101000a900460ff1660ff1667ffffffffffffffff81111561065757610656610cef565b5b60405190808252806020026020018201604052801561069057816020015b61067d6107f2565b8152602001906001900390816106755790505b50905060005b60008054906101000a900460ff1660ff168160ff1610156107ea57600160008260ff1660ff1681526020019081526020016000206040518060600160405290816000820160009054906101000a900460ff1660ff1660ff16815260200160018201805461070290610c5d565b80601f016020809104026020016040519081016040528092919081815260200182805461072e90610c5d565b801561077b5780601f106107505761010080835404028352916020019161077b565b820191906000526020600020905b81548152906001019060200180831161075e57829003601f168201915b505050505081526020016002820160009054906101000a900467ffffffffffffffff1667ffffffffffffffff1667ffffffffffffffff1681525050828260ff16815181106107cc576107cb610d1e565b5b602002602001018190525080806107e290610d4d565b915050610696565b508091505090565b6040518060600160405280600060ff16815260200160608152602001600067ffffffffffffffff1681525090565b600080fd5b600060ff82169050919050565b61083b81610825565b811461084657600080fd5b50565b60008135905061085881610832565b92915050565b60006020828403121561087457610873610820565b5b600061088284828501610849565b91505092915050565b61089481610825565b82525050565b600081519050919050565b600082825260208201905092915050565b60005b838110156108d45780820151818401526020810190506108b9565b838111156108e3576000848401525b50505050565b6000601f19601f8301169050919050565b60006109058261089a565b61090f81856108a5565b935061091f8185602086016108b6565b610928816108e9565b840191505092915050565b600067ffffffffffffffff82169050919050565b61095081610933565b82525050565b600060608201905061096b600083018661088b565b818103602083015261097d81856108fa565b905061098c6040830184610947565b949350505050565b600073ffffffffffffffffffffffffffffffffffffffff82169050919050565b60006109bf82610994565b9050919050565b6109cf816109b4565b81146109da57600080fd5b50565b6000813590506109ec816109c6565b92915050565b600060208284031215610a0857610a07610820565b5b6000610a16848285016109dd565b91505092915050565b60008115159050919050565b610a3481610a1f565b82525050565b6000602082019050610a4f6000830184610a2b565b92915050565b6000602082019050610a6a600083018461088b565b92915050565b600081519050919050565b600082825260208201905092915050565b6000819050602082019050919050565b610aa581610825565b82525050565b600082825260208201905092915050565b6000610ac78261089a565b610ad18185610aab565b9350610ae18185602086016108b6565b610aea816108e9565b840191505092915050565b610afe81610933565b82525050565b6000606083016000830151610b1c6000860182610a9c565b5060208301518482036020860152610b348282610abc565b9150506040830151610b496040860182610af5565b508091505092915050565b6000610b608383610b04565b905092915050565b6000602082019050919050565b6000610b8082610a70565b610b8a8185610a7b565b935083602082028501610b9c85610a8c565b8060005b85811015610bd85784840389528151610bb98582610b54565b9450610bc483610b68565b925060208a01995050600181019050610ba0565b50829750879550505050505092915050565b60006020820190508181036000830152610c048184610b75565b905092915050565b60006020820190508181036000830152610c2681846108fa565b905092915050565b7f4e487b7100000000000000000000000000000000000000000000000000000000600052602260045260246000fd5b60006002820490506001821680610c7557607f821691505b60208210811415610c8957610c88610c2e565b5b50919050565b7f4e487b7100000000000000000000000000000000000000000000000000000000600052601160045260246000fd5b6000610cc982610933565b915067ffffffffffffffff821415610ce457610ce3610c8f565b5b600182019050919050565b7f4e487b7100000000000000000000000000000000000000000000000000000000600052604160045260246000fd5b7f4e487b7100000000000000000000000000000000000000000000000000000000600052603260045260246000fd5b6000610d5882610825565b915060ff821415610d6c57610d6b610c8f565b5b60018201905091905056fea264697066735822122054c1d8c5aaecaad9fcde9400ffc851d1a79a1a50b357a7b69b6328f5ea4faade64736f6c63430008090033",
  "linkReferences": {},
  "deployedLinkReferences": {}
}